S00F0000444130345F54312E7372656348
S11300000C9434000C9448000C9446000C94460064
S11300100C9446000C9446000C9446000C94460044
S11300200C9446000C9446000C9446000C94460034
S11300300C9446000C9446000C9446000C94460024
S11300400C9446000C9446000C9446000C94460014
S11300500C9446000C9446000C9446000C94460004
S11300600C9446000C94460011241FBECFEFD8E038
S1130070DEBFCDBF21E0A0E0B1E001C01D92A230FF
S1130080B207E1F70E945B000C9491000C9400000D
S11300901F920F920FB60F9211248F939F93E09AA1
S11300A095B181E0892785B99F918F910F900FBEFB
S11300B00F901F9018958FEF84B984E08BB98AB99B
S11300C0569AECE7F0E0108280818064808380811E
S11300D08062808387E880937A0010927B0017BC4B
S11300E084B5806884BD84B5836084BD85B5826031
S11300F085BD81E08DBB93E090936900109201016E
S11301001092000185B97894EAE7F0E0A9E7B0E03D
S1130110808180648083808184FFFDCF8C9187BD42
S1090120F7CFF894FFCFB5
S9030000FC
