:100000000C9434000C943E000C943E000C943E0082
:100010000C943E000C943E000C943E000C943E0068
:100020000C943E000C943E000C943E000C943E0058
:100030000C943E000C943E000C943E000C943E0048
:100040000C943E000C943E000C943E000C943E0038
:100050000C943E000C943E000C943E000C943E0028
:100060000C943E000C943E0011241FBECFEFD8E04C
:10007000DEBFCDBF0E9440000C94A8010C9400008C
:100080008FEF84B910927C0087E880937A001092F9
:100090007B00E0E8F0E08081826A8083E1E8F0E0C4
:1000A00080818861808380818360808384EC99E093
:1000B0009093870080938600CAE7D0E00F2EF8E780
:1000C000EF2EF12CF02D0AE810E0888180648883FF
:1000D000888184FFFDCFF7016081718180E090E02D
:1000E0000E94AD002AE939E949E95EE30E94130163
:1000F0000E947E00F80171836083E7CF0E94F200C6
:1001000088F09F5798F0B92F9927B751B0F0E1F0D8
:10011000660F771F881F991F1AF0BA95C9F714C088
:10012000B13091F00E940C01B1E008950C940C01E3
:10013000672F782F8827B85F39F0B93FCCF38695C1
:1001400077956795B395D9F73EF49095809570951E
:1001500061957F4F8F4F9F4F0895E89409C097FB9B
:100160003EF490958095709561957F4F8F4F9F4F8E
:100170009923A9F0F92F96E9BB279395F6958795D2
:1001800077956795B795F111F8CFFAF4BB0F11F495
:1001900060FF1BC06F5F7F4F8F4F9F4F16C088233C
:1001A00011F096E911C0772321F09EE8872F762F72
:1001B00005C0662371F096E8862F70E060E02AF0B3
:1001C0009A95660F771F881FDAF7880F969587959F
:1001D00097F9089557FD9058440F551F59F05F3F08
:1001E00071F04795880F97FB991F61F09F3F79F059
:1001F00087950895121613061406551FF2CF4695DB
:10020000F1DF08C0161617061806991FF1CF86955C
:100210007105610508940895E894BB276627772740
:10022000CB0197F908950E9426010C9497010E9432
:10023000890138F00E94900120F0952311F00C9470
:1002400080010C94860111240C940D010E94EA0097
:1002500070F3959FC1F3950F50E0551F629FF00119
:10026000729FBB27F00DB11D639FAA27F00DB11D32
:10027000AA1F649F6627B00DA11D661F829F2227BB
:10028000B00DA11D621F739FB00DA11D621F839F42
:10029000A00D611D221F749F3327A00D611D231F18
:1002A000849F600D211D822F762F6A2F11249F5766
:1002B00050409AF0F1F088234AF0EE0FFF1FBB1F69
:1002C000661F771F881F91505040A9F79E3F510528
:1002D00080F00C9480010C940D015F3FE4F3983E94
:1002E000D4F3869577956795B795F795E7959F5FD2
:1002F000C1F7FE2B880F911D9695879597F9089564
:1003000097F99F6780E870E060E008959FEF80ECC8
:10031000089500240A94161617061806090608956B
:1003200000240A9412161306140605060895092ED1
:100330000394000C11F4882352F0BB0F40F4BF2B40
:1003400011F460FF04C06F5F7F4F8F4F9F4F089580
:04035000F894FFCF4F
:00000001FF
