:020000020000FC
:10000000A2E2B2E0C0E0D4E0E0E0F6E00027112791
:10001000222733274427552771E08CE2662762E2C6
:10002000960F62E0960F9D9353950C941B00439599
:1000300055270C9412005030D1F3851799F7741797
:1000400089F744275527662765E0FE90EF2CF616C2
:1000500028F0F61649F0F61AF616C8F7E1922E0DBA
:1000600030E053950C943E00E9920E0D10E053954C
:100070000C943E00439555270C9425005030D1F345
:0A008000851719F7741709F700003F
:00000001FF
