:100000000C9434000C943E000C943E000C943E0082
:100010000C943E000C943E000C943E000C943E0068
:100020000C943E000C943E000C943E000C943E0058
:100030000C943E000C943E000C943E000C943E0048
:100040000C943E000C943E000C943E000C943E0038
:100050000C943E000C943E000C943E000C943E0028
:100060000C943E000C943E0011241FBECFEFD8E04C
:10007000DEBFCDBF0E944D000C9460000C940000C8
:1000800084E190E0EFE0F7E23197F1F700C0000083
:100090000197C1F781E090E00895229A2A985A9A30
:1000A000C4E00E9440002FEF88EF95E1215080408E
:1000B0009040E1F700C0000085B18C2785B9F1CFF1
:0400C000F894FFCFE2
:00000001FF
