S010000044415F46494E414C2E73726563C6
S11300000C9434000C9451000C9451000C94510045
S11300100C9451000C9451000C9451000C94510018
S11300200C9451000C9451000C9451000C94510008
S11300300C9451000C9451000C9451000C945100F8
S11300400C9451000C9451000C9411010C94510027
S11300500C9451000C9451000C9451000C945100D8
S11300600C9451000C94510011241FBECFEFD8E022
S1130070DEBFCDBF11E0A0E0B1E0E2EFF3E002C0EB
S113008005900D92A03AB107D9F721E0A0EAB1E0BA
S113009001C01D92A63AB207E1F70E9453000C94E6
S11300A0F7010C9400001092A1011092A00110928B
S11300B0A5011092A4018FEF84B98AB987B1806336
S11300C087B94498459880ED97E090938700809392
S11300D08600909389008093880090938B0080938E
S11300E08A00E0E8F0E08081806A80831092C50095
S11300F083E38093C400A1ECB0E08C9188618C937D
S1130100C2ECD0E08881866088838C9180688C936F
S11301107894808182608083E1E8F0E08081886166
S1130120808380818260808320E230E10CC088B1CA
S1130130832788B94FEF84E39CE04150804090408E
S1130140E1F700C000008091A0019091A101019706
S113015071F38091A4019091A5010197A1F788B151
S1130160822788B94FEF84E39CE04150804090405F
S1130170E1F700C000008091A4019091A5010197CE
S113018071F3E1CF85B1806385B98BB188618BB997
S113019008952D9A2C985B9A5C9808952C9A2D9822
S11301A05C9A5B9808952C9A2D985B9A5C980895B4
S11301B02D9A2C985C9A5B9808958091A001909157
S11301C0A101892B69F481E090E09093A1018093CF
S11301D0A0011092A5011092A40144984598089595
S11301E01092A1011092A00144984598089580911D
S11301F0A4019091A501892B69F481E090E090938A
S1130200A5018093A4011092A1011092A001449829
S1130210459808951092A5011092A4014498459818
S113022008951F920F920FB60F9211242F933F93AC
S11302304F935F936F937F938F939F93AF93BF93EA
S1130240CF93DF93EF93FF938091C600873781F4B8
S11302500E94C90080E091E09093A3018093A201E1
S1130260E091A201F091A3019081911198C0ACC0DA
S1130270833749F40E94CE008AE091E09093A30171
S11302808093A201EDCF813649F40E94D80085E124
S113029091E09093A3018093A201E2CF843649F4C4
S11302A00E94D3008CE191E09093A3018093A2017A
S11302B0D7CF803249F40E94C20084E291E0909347
S11302C0A3018093A201CCCF813749F40E94DD00C1
S11302D08CE291E09093A3018093A201C1CF853673
S11302E049F40E94F70086E391E09093A301809380
S11302F0A201B6CF823729F58091880090918900B8
S1130300803D9740B8F4E8E8F0E0808191818C501A
S11303109E4F91838083EAE8F0E0808191818C5044
S11303209E4F9183808381E491E09093A301809315
S1130330A20196CF82E591E09093A3018093A2015C
S11303408FCF863629F58091880090918900893E67
S11303509340B8F0E8E8F0E080819181845F9140B7
S113036091838083EAE8F0E080819181845F914009
S11303709183808387E691E09093A3018093A20107
S11303806FCF89E791E09093A3018093A20168CF96
S11303908FE891E09093A3018093A20161CF20E0C4
S11303A030E0E0ECF0E0C6ECD0E0808185FFFDCFEA
S11303B098832F5F3F4FA091A201B091A301A20F98
S11303C0B31F9C919111F1CFFF91EF91DF91CF91E8
S11303D0BF91AF919F918F917F916F915F914F9159
S11303E03F912F910F900FBE0F901F901895F89486
S10503F0FFCF39
S11303F2466F72776172640A0D004261636B7761C2
S113040272640A0D004C6566740A0D0052696768CD
S1130412740A0D004272616B650A0D004C656674C4
S11304225369670A0D0052696768745369670A0D54
S1130432005370656564696E672075702121210A15
S11304420D0043616E6E6F7420676F206661737472
S1130452657221210A0D00536C6F77696E672064FF
S11304626F776E2E2E2E0A0D0043616E6E6F74200E
S1130472676F20736C6F7765722E2E2E0A0D004EF5
S11304826F74206120636F6D6D616E642E0A0D00BE
S9030000FC
