S00F0000444130345F54322E7372656347
S11300000C9434000C9448000C9468000C94460042
S11300100C9446000C9446000C9446000C94460044
S11300200C9446000C9446000C9446000C94460034
S11300300C9446000C9446000C9446000C94460024
S11300400C9446000C9446000C9446000C94460014
S11300500C9446000C9446000C9446000C94460004
S11300600C9446000C94460011241FBECFEFD8E038
S1130070DEBFCDBF21E0A0E0B1E001C01D92A530FC
S1130080B207E1F70E94BC000C9416010C94000026
S11300901F920F920FB60F9211248F939F93E09AA1
S11300A08091000190910101892B39F481E090E065
S11300B0909301018093000104C0109201011092F9
S11300C000019F918F910F900FBE0F901F90189574
S11300D01F920F920FB60F9211248F939F93E19A60
S11300E08091030190910401892B39F481E090E01F
S11300F0909304018093030104C0109204011092B0
S113010003019F918F910F900FBE0F901F90189530
S113011010928500109284008091020124E6829F4F
S1130120C00111249093890080938800B19BFECF75
S1130130B19A089586E085B90E9488008CE085B95B
S11301400E94880089E085B90E94880083E085B90F
S11301500E948800089586E085B90E94880083E0A3
S113016085B90E94880089E085B90E9488008CE0E6
S113017085B90E94880008958FE084B98CE08BB91A
S11301808AB9ECE7F0E010829081906490839081CA
S11301909062908397E890937A0010927B00E1E854
S11301A0F0E090819B60908393E09DBBE9E6F0E0F2
S11301B09083808310920101109200017894CAE721
S11301C0D0E009E710E0888180648883888184FF17
S11301D0FDCFF8018081809302018091000190910C
S11301E00101892B71F08091030190910401892B05
S11301F041F40E949A008FEC97E00197F1F700C058
S113020000008091000190910101892BE1F280911D
S1130210030190910401892BB1F20E94AB00EFEC31
S1130220F7E03197F1F700C00000CDCFF894FFCF8D
S9030000FC
