:020000020000FC
:10000000A2E2B2E0C0E0D4E0E0E0F6E01127002791
:10001000332722274427552771E08CE2662762E2C6
:10002000960F62E0960F9D9353950C941B00439599
:1000300055270C9412005030D1F3851799F7741797
:1000400089F744275527662765E0FE90EF2CF616C2
:1000500028F0F61679F0F61AF616C8F7E192DE2CBB
:100060003E0D3D1518F053950C944A002395539579
:100070000C944A00E992DE2C1E0D1D1518F05395C4
:100080000C944A00039553950C944A0043955527C8
:100090000C9425005030D1F38517B9F67417A9F6E2
:0200A00000005E
:00000001FF
