:100000000C9434000C943E000C943E000C943E0082
:100010000C943E000C943E000C943E000C943E0068
:100020000C943E000C943E000C943E000C943E0058
:100030000C943E000C943E000C943E000C943E0048
:100040000C943E000C943E000C943E000C943E0038
:100050000C943E000C943E000C943E000C943E0028
:100060000C943E000C943E0011241FBECFEFD8E04C
:10007000DEBFCDBF0E9440000C9483000C940000B2
:10008000CF93DF9300D000D000D0CDB7DEB71A8277
:100090001982229A2A9814BC85E085BD24E086B591
:1000A0008F3FE9F789819A81069731F51E821D827B
:1000B0008D819E818697D0F41C821B828B819C81CE
:1000C0008F3F910550F48B819C8101969C838B839B
:1000D0008B819C818F3F9105B0F38D819E8101962C
:1000E0009E838D838D819E81869730F385B1822793
:1000F00085B91A82198205C089819A8101969A83ED
:0A010000898316BCCCCFF894FFCF22
:00000001FF
