:100000000C9434000C9446000C9446000C9446006A
:100010000C9446000C9446000C9446000C94460048
:100020000C9446000C9446000C9446000C94460038
:100030000C9446000C9446000C9446000C94460028
:100040000C945C000C9446000C9446000C94460002
:100050000C9446000C9446000C9446000C94460008
:100060000C9446000C94460011241FBECFEFD8E03C
:10007000DEBFCDBF21E0A0E0B1E001C01D92A23003
:10008000B207E1F70E9448000C94AE000C94000007
:10009000CF93DF9300D0CDB7DEB71A821982229AB0
:1000A00014BC85B5856085BD16BCEEE6F0E08081A8
:1000B000816080837894FFCF1F920F920FB60F92CA
:1000C00011248F939F93CF93DF9300D000D0CDB7AF
:1000D000DEB78091000190910101069749F51C82DD
:1000E0001B828B819C818497D0F41A82198289812A
:1000F0009A818F3F910550F489819A8101969A8364
:10010000898389819A818F3F9105B0F38B819C818E
:1001100001969C838B838B819C81849730F395B16E
:1001200084E0892785B9109201011092000109C06D
:1001300080910001909101010196909301018093BB
:1001400000010F900F900F900F90DF91CF919F9132
:100150008F910F900FBE0F901F901895F894FFCFBE
:00000001FF
