S012000044415F6D69647465726D2E737265633C
S11300000C9434000C9451000C9451000C94510045
S11300100C9451000C9451000C9451000C94510018
S11300200C9451000C9451000C9451000C94510008
S11300300C9451000C9451000C9451000C945100F8
S11300400C9451000C9451000C9451000C945100E8
S11300500C9451000C9468000C9451000C945100C1
S11300600C9451000C94510011241FBECFEFD8E022
S1130070DEBFCDBF11E0A0E0B1E0E4E6F3E002C0F2
S113008005900D92A03CB107D9F721E0A0ECB1E0B6
S113009001C01D92A63CB207E1F70E94EA000C944D
S11300A0B0010C9400001092C50080E18093C4005C
S11300B0E0ECF0E0808182608083E1ECF0E080811C
S11300C088608083E2ECF0E080818660808308951C
S11300D01F920F920FB60F9211242F933F934F93B9
S11300E05F936F937F938F939F93AF93BF93EF939C
S11300F0FF93CF93DF93CDB7DEB72597DEBFCDBF98
S113010080917900880F8093C5018091C5014AE0F0
S1130110BE016F5F7F4F90E00E947B01FE0131962C
S113012080E090E02191DC01A054BE4F2C93019615
S113013085309105B9F70F900F900F900F900F90A5
S1130140DF91CF91FF91EF91BF91AF919F918F91EB
S11301507F916F915F914F913F912F910F900FBEBF
S11301600F901F901895CF93DF9300D0CDB7DEB7D3
S11301709C011A828A81F901E80FF11D808188238C
S113018051F09A819F5F9A838A81F901E80FF11DEA
S113019080818111F6CF198299818A819817A8F4F8
S11301A0E0ECF0E046EC50E0908195FFFDCF8981D2
S11301B0D901A80FB11D8C91DA018C9399819F5FAD
S11301C0998399818A81981778F30F900F90DF9122
S11301D0CF910895ECE7F0E0108280818064808301
S11301E0808180628083EAE7F0E080818760808399
S11301F080818062808310927B008081806880830C
S11302008081886080838081806480830E94530021
S11302102FEF3DE389E4215030408040E1F700C0F6
S113022000008AEB91E00E94B3009FEF2DE339E4D4
S1130230915020403040E1F700C0000085E091E09B
S11302400E94B3008FEF9DE329E481509040204049
S1130250E1F700C000008CE391E00E94B3003FEF9F
S11302608DE399E4315080409040E1F700C00000F4
S11302708EE091E00E94B3002AEA36EE86E991E02E
S11302802150304080409040D9F700008CEA91E042
S11302900E94B30078942FEF39E688E12150304072
S11302A08040E1F700C0000083E891E00E94B300C1
S11302B09FEF29E638E1915020403040E1F700C03B
S11302C000008AE491E00E94B3008FEF99E628E1F0
S11302D0815090402040E1F700C000008AE591E0A1
S11302E00E94B30080EC91E00E94B30080E091E0B2
S11302F00E94B300D0CFBB274A3031F4992322F4B3
S1130300BDE2909581959F4F0C948701BB27FB011B
S11303105527AA27880F991FAA1FA41710F0A41BFA
S113032083955051B9F7A05DAA3308F0A95DA19354
S1130330009779F7B111B1931192CB010C94A001FC
S1130340DC01FC01672F71917723E1F7329704C038
S11303507C916D9370836291AE17BF07C8F30895C3
S1070360F894FFCF3B
S11303640D0A0D0A0041542B474D520D0A00415405
S11303742B43574A41503D2243656E747572794C40
S1130384696E6B30363937222C227272626464626D
S11303946164383839323439220D0A0041542B430C
S11303A4574D4F44453D330D0A0041542B434950A6
S11303B453454E443D34350D0A00474554202F75AA
S11303C470646174653F6B65793D3459455A3232C2
S11303D44A47365134454D514543266669656C6434
S11303E4313D0041542B43495053544152543D220E
S11303F4544350222C223138342E3130362E3135A8
S1130404332E313439222C38300D0A0041542B4315
S113041449504D55583D300D0A0041540D0A000011
S9030000FC
