S00D00004441325F632E737265639E
S11300000C9434000C9440000C943E000C943E007C
S11300100C943E000C943E000C943E000C943E0064
S11300200C943E000C943E000C943E000C943E0054
S11300300C943E000C943E000C943E000C943E0044
S11300400C943E000C943E000C943E000C943E0034
S11300500C943E000C943E000C943E000C943E0024
S11300600C943E000C943E0011241FBECFEFD8E048
S1130070DEBFCDBF0E945F000C947F000C94000093
S11300801F920F920FB60F9211242F933F938F93C9
S11300909F93E09A85B12A9A2FEF39E698E121508F
S11300A030409040E1F700C0000085B99F918F91E6
S11300B03F912F910F900FBE0F901F901895229A89
S11300C02A9884E08BB98AB981E08DBB83E0809360
S11300D0690078942A9A2FE78AE196E021508040BB
S11300E09040E1F700C000002A982FE78AE196E0EB
S11300F0215080409040E1F700C00000EBCFF8941D
S1050100FFCF2B
S9030000FC
